:100000000C9434000C9451000C9451000C94510049
:100010000C949C010C9420010C9451000C94510000
:100020000C9451000C9451000C9451000C94D0008D
:100030000C9451000C9451000C94BE000C9451008F
:100040000C9451000C9451000C9451000C945100EC
:100050000C9451000C9451000C9451000C945100DC
:100060000C9451000C94510011241FBECFEFD8E026
:10007000DEBFCDBF11E0A0E0B1E0EEE4F1E102C0EF
:1000800005900D92A433B107D9F721E0A4E3B1E0C4
:1000900001C01D92A235B207E1F70E94AD020C9497
:1000A000A5080C940000E1E8F0E08081887F80835F
:1000B0000895E1E8F0E080818A7F8083808182601A
:1000C00080830895E1E8F0E080818B7F80838081E8
:1000D000836080830895E1E8F0E08081877F8083FA
:1000E000EFE6F0E08081826080838FE395EB909370
:1000F00089008093880010928500109284000895F2
:10010000E1E8F0E0808188608083EFE6F0E08081C4
:100110008260808387EA91E69093890080938800CB
:1001200010928500109284001092400183E2809327
:10013000B3000895239AE0EBF0E080818368808328
:10014000E1EBF0E080818760808383E28093B300FD
:100150000895259A84B5826084BDEEE6F0E0808142
:1001600082608083089585B58C7F85BD85B5846068
:1001700085BD089585B5887F85BD08951F920F922E
:100180000FB60F9211248F939F9385B190E2892728
:1001900085B99F918F910F900FBE0F901F9018956A
:1001A0001F920F920FB60F9211242F933F934F93EC
:1001B0005F936F937F938F939F93AF93BF93EF93CF
:1001C000FF9380913A01813021F080913A0184308F
:1001D00021F40E94530010923A0180913A01833039
:1001E000F1F4809140018F5F8093400120914001A4
:1001F00039EE3203C001112464E670E00E94490523
:100200006D5D6093B30080914001843640F00E94A0
:10021000530088B1866088B9439810923A01FF91E3
:10022000EF91BF91AF919F918F917F916F915F916E
:100230004F913F912F910F900FBE0F901F901895E7
:100240001F920F920FB60F9211242F933F934F934B
:100250005F936F937F938F939F93AF93BF93EF932E
:10026000FF934A9B15C00E946B000E945900FF91AA
:10027000EF91BF91AF919F918F917F916F915F911E
:100280004F913F912F910F900FBE0F901F90189597
:100290000E945300809184009091850090934201C8
:1002A00080934101409141015091420125E0249FFA
:1002B000C001259F900D11246AE370E00E9435056E
:1002C000709342016093410180913A01813061F461
:1002D00080914101909142019093350180933401C6
:1002E00082E080933A01C3CF80913A01843009F0D3
:1002F000BECF809141019091420190933E01809345
:100300003D0120933A01B3CF96B1892F807294FDBD
:1003100009C081110DC0109238018091380180937D
:100320003C010895811106C081E080933801F5CF2A
:1003300082E0FBCF83E0F9CF1F920F920FB60F92AE
:1003400011242F938F939F9386B1982F9071807271
:100350002091380121110BC0992309F446C021E0F6
:1003600020933C01209137012F5F2093370120918A
:100370003801213049F4911142C010923C01209182
:10038000370121502093370120913801223051F458
:100390009923F1F123E020933C0120913701215072
:1003A0002093370120913801233051F4911138C046
:1003B00082E080933C01809137018F5F8093370109
:1003C00090913C0180913801981739F081E0809339
:1003D0003F0180913C01809338019F918F912F9133
:1003E0000F900FBE0F901F901895882309F4BFCF70
:1003F00022E020933C01209137012150B6CF882381
:1004000019F223E020933C01209137012F5FBACFEE
:100410008111C8CF10923C01209137012F5FC0CFCE
:100420008111CECF81E080933C01809137018150D2
:10043000C5CF9BB19F709BB99BB1807F892B8BB936
:10044000299A299A29980895CF93C82F28980E940D
:1004500019028C2F8295807F0E9419028FE39FE101
:100460000197F1F700C00000CF910895811104C0F9
:1004700080E8860F0C94240280ECFBCF84B183606B
:1004800084B98AB1806F8AB98FE59AEE0197F1F746
:1004900000C0000080E30E9419028FE19EE40197F2
:1004A000F1F700C0000080E30E9419028FED91E097
:1004B0000197F1F700C0000080E30E94190280E27A
:1004C0000E9419028FE39FE10197F1F700C000003D
:1004D00088E20E9424028FE00C942402CF93C82F5C
:1004E000289A0E9419028C2F8295807F0E941902FF
:1004F0008FE39FE10197F1F700C00000CF910895CD
:10050000CF93DF93EC018991811103C0DF91CF91EB
:1005100008950E946E02F7CFEAE7F0E080818068DC
:100520008083ACE7B0E08C9180668C93808187609B
:100530008083089590917C00907F8F70982B90938A
:100540007C0080917A00806480937A0080917A00A8
:1005500086FDFCCF809179000895CF93DF93CDB7CE
:10056000DEB7A6970FB6F894DEBF0FBECDBF0E94D0
:100570003E020E948C020E949A000E94A900539A97
:1005800087B18E6087B9809168008460809368002D
:1005900080916D00846080936D008091680082601E
:1005A0008093680080916C00806380936C0088B1B8
:1005B000806388B90E948401789481E00E942402BB
:1005C00080E091E09F938F9385E091E09F938F93DC
:1005D0008DE091E09F938F931F928DE08F938E011A
:1005E0000E5E1F4F1F930F930E94B80562E080E0DC
:1005F0000E943602C8010E9480022FEF33ED40E3D3
:10060000215030404040E1F700C0000081E00E94EE
:10061000240288B1866088B9439810923A018AE032
:1006200090E00E94660880933701809137010FB6F1
:10063000F894DEBF0FBECDBF843620F48091370121
:10064000811103C08AE08093370188E28093B30070
:100650009AE0A92EB12C23E1E22E21E0F22E31E125
:10066000D32E8E010F5F1F4F49E1242E41E0342E1F
:100670005AE0452E512C612C712C4E013FE1830E26
:10068000911C8AE0C82E80913A0181110EC00E940F
:100690009A0287598B3048F45B9A45E34A95F1F703
:1006A00000005B9851E050933A0180913A0182300A
:1006B00071F5809134019091350120913401309190
:1006C0003501B5010E9435059F938F93C901B5018E
:1006D0000E9435057F936F93FF92EF921F92DF92F6
:1006E0001F930F930E94B80560E080E00E943602DD
:1006F000C8010E9480020E9480000E94620083E084
:1007000080933A010FB6F894DEBF0FBECDBF809143
:100710003A01833091F580914001209140016C2D88
:100720000E9429051F929F93822F0E9429051F92E4
:100730008F93FF92EF921F92DF921F930F930E946D
:10074000B8056CE080E00E943602C8010E94800279
:1007500080E00E949A020FB6F894DEBF0FBECDBFB4
:10076000853058F40E9453005B9A55E35A95F1F78F
:1007700000005B9884E080933A0180913A018530D3
:1007800009F081CF809134019091350181399140F8
:1007900038F480913D0190913E018139914038F1CA
:1007A00088B1866088B943983F922F9280E291E0A9
:1007B0009F938F938DE091E09F938F931F928DE095
:1007C0008F931F930F930E94B80562E080E00E9410
:1007D0003602C8010E94800281E00E942402109229
:1007E0003A010FB6F894DEBF0FBECDBF4ACF2091BD
:1007F0003D0130913E018091340190913501E091AD
:10080000400150E040E0281B390B41095109AAE0A2
:10081000B0E00E947C052E2F30E050E040E00E94C6
:100820005D0520934C0130934D0140934E01509350
:100830004F0181E00E9424028091340190913501A2
:100840002091340130913501B5010E9435059F9307
:100850008F93C901B5010E9435057F936F93FF9275
:10086000EF921F92DF921F930F930E94B80560E0F2
:1008700080E00E943602C8010E94800280913D0102
:1008800090913E0120913D0130913E01B5010E94C1
:1008900035059F938F93C901B5010E9435057F935C
:1008A0006F93FF92EF921F92DF921F930F930E941C
:1008B000B80568E080E00E943602C8010E9480020C
:1008C00080914001309140012AE0622F0E94290569
:1008D0001F929F93832F0E9429051F928F93FF924F
:1008E000EF921F92DF921F930F930E94B8056AE068
:1008F00081E00E943602C8010E94800280914C0172
:1009000090914D01A0914E01B0914F010FB6F89416
:10091000DEBF0FBECDBFB7FF6FC080914C0190917D
:100920004D01A0914E01B0914F019C01AD01662790
:100930007727CB01621B730B840B950BA3019201EC
:100940000E945D059F938F937F936F935F934F9367
:100950003F932F9387E291E09F938F931F92DF92B3
:100960001F930F930E94B8050FB6F894DEBF0FBE19
:10097000CDBF60E081E00E943602C8010E94800283
:1009800088B18E6088B960914C0170914D01809161
:100990004E0190914F01C090370197FF07C090958D
:1009A0008095709561957F4F8F4F9F4FA301920166
:1009B0000E945D058C2D90E0B0E0A0E082179307C7
:1009C000A407B5070CF043C04198809137011F92EE
:1009D0008F9380E391E09F938F931F9284E08F9396
:1009E0009F928F920E94B80567E081E00E943602D4
:1009F000C4010E948002F3CE60914C0170914D01C0
:100A000080914E0190914F0120914C0130914D0108
:100A100040914E0150914F012BA33CA34DA35EA3E7
:100A2000A30192010E945D059F938F937F936F9323
:100A30006BA17CA18DA19EA1A30192010E945D05E5
:100A40005F934F933F932F9388E291E085CF429835
:100A5000BCCF991B79E004C0991F961708F0961B2C
:100A6000881F7A95C9F780950895AA1BBB1B51E191
:100A700007C0AA1FBB1FA617B70710F0A61BB70B0E
:100A8000881F991F5A95A9F780959095BC01CD01B3
:100A9000089597FB072E16F4009407D077FD09D030
:100AA0000E94350507FC05D03EF4909581959F4F37
:100AB0000895709561957F4F0895052E97FB1EF45C
:100AC00000940E94740557FD07D00E94870507FC1B
:100AD00003D04EF40C9474055095409530952195B3
:100AE0003F4F4F4F5F4F089590958095709561955A
:100AF0007F4F8F4F9F4F08950E94A905A59F900D8E
:100B0000B49F900DA49F800D911D11240895A1E222
:100B10001A2EAA1BBB1BFD010DC0AA1FBB1FEE1F77
:100B2000FF1FA217B307E407F50720F0A21BB30BC2
:100B3000E40BF50B661F771F881F991F1A9469F73E
:100B400060957095809590959B01AC01BD01CF019A
:100B50000895A29FB001B39FC001A39F700D811D96
:100B60001124911DB29F700D811D1124911D0895B6
:100B7000AEE0B0E0EEEBF5E00C947C080D891E8948
:100B80008F89988D26E02C831A83098397FF02C0F2
:100B900080E090E801979E838D83AE01455E5F4FB4
:100BA000698D7A8DCE0101960E94E8054D815E81A6
:100BB00057FD0AC02F813885421753070CF49A015C
:100BC000020F131FF80110822E96E4E00C9498088F
:100BD000ABE0B0E0EEEEF5E00C946E087C013B017A
:100BE0008A01FC0117821682838181FFC8C1CE0170
:100BF00001965C01F7019381F30193FD859193FFC9
:100C000081913F01882309F453C1853239F493FD62
:100C1000859193FF81913F01853229F4B70190E0DE
:100C20000E94D807E7CF912C212C312CFFE1F3153E
:100C300038F08B3211F190F4803209F1833229F1CE
:100C400037FC3CC020ED280F2A3050F536FE20C07E
:100C50008AE0989E200D1124922E06C08D3291F0CC
:100C6000803371F7689430F8F30193FD859193FF19
:100C700081913F018111DACF21C0689431F86894E5
:100C800032F8F2CF689433F8EFCF689434F8ECCFB1
:100C9000EAE02E9E200D1124222E689435F8E4CF30
:100CA0008E3229F436FC04C1689436F8DDCF8C36D8
:100CB00019F4689437F8D8CF8836B1F2982F9F7D11
:100CC00095549330E0F08336A1F18337C1F1833539
:100CD00009F063C02801F2E04F0E511CF801C080FA
:100CE000D180692D70E036FC02C06FEF7FEFC60146
:100CF0000E94C2074C01689437F882010AC00C5F59
:100D00001F4FFFE3F98388248394912C6501E894B5
:100D100037F833FE2DC0522C8114910471F5552003
:100D200009F468CFB70180E290E00E94D8075A9496
:100D3000F6CFF801808189830E5F1F4FE4CF280131
:100D4000F2E04F0E511CF801C080D180692D70E097
:100D500036FC02C06FEF7FEFC6010E94CD074C0149
:100D60008201D5CFB70180E290E00E94D8072A9493
:100D70002814190409F0B0F7CECFF60137FC85919D
:100D800037FE81916F01B70190E00E94D8075110A2
:100D90005A94F1E08F1A9108BFCF843619F0893642
:100DA00009F077C0F80137FE6BC0608171818281E4
:100DB00093810C5F1F4FF32DFF763F2E97FF09C0E5
:100DC00090958095709561957F4F8F4F9F4F689458
:100DD00037F82AE030E0A5010E940808C82ECA189A
:100DE0008C2C432C36FE0CC0E89440F8C91440F417
:100DF00034FE05C032FC03C0F32DFE7E4F2E892C3D
:100E000044FE95C0FE01EC0DF11D8081803309F098
:100E100087C0242D297E422E842D8870582E43FCB5
:100E200095C040FE8FC09C2C821418F42C0C922C80
:100E3000981844FE91C0B70180E390E00E94D80763
:100E400042FE09C088E790E041FE02C088E590E0DC
:100E5000B7010E94D807C91408F48AC0CA94D12CDB
:100E60009FEFC91AD90ACA0CDB1CF60182916F01E7
:100E7000B70190E00E94D807AC14BD04B1F74FCF82
:100E800060817181072E000C880B990B0E5F1F4F3C
:100E900092CFD32CE894D4F82AE030E0853739F1AA
:100EA000232D297FD22E8F3601F148F48835A9F001
:100EB000F701868197812B96E2E10C948A088037AE
:100EC00049F08837A9F7D4FE02C06894D2F820E12F
:100ED00030E00DC06894D4F8F6CF34FE03C0822F02
:100EE0008660D82E20E132E002C028E030E0F80130
:100EF000D7FE0FC060817181828193810C5F1F4F8B
:100F0000A5010E940808C82ECA183D2CE89437F89D
:100F100067CF6081718190E080E00E5F1F4FF0CF5E
:100F200042FC02C0839478CF8394839475CF842D40
:100F3000867809F471CFF6CFB70180E290E00E9485
:100F4000D80783948214C0F3512C73CF522C5818B5
:100F5000821408F46ECFF8CF842D867809F47BCF05
:100F60008BE241FE80E247FC8DE2B70190E071CF59
:100F7000B70180E390E00E94D8079A946CCF8FEF7E
:100F80009FEF99CFFC010590615070400110D8F798
:100F9000809590958E0F9F1F0895FC0161507040C1
:100FA00001900110D8F7809590958E0F9F1F08959E
:100FB0000F931F93CF93DF93182F092FEB018B8192
:100FC00081FD09C01FEF0FEF812F902FDF91CF918F
:100FD0001F910F91089582FF14C02E813F818C8153
:100FE0009D81281739073CF4E881F981CF010196EA
:100FF0009983888310838E819F8101969F838E833E
:10100000E3CFE885F985812F0995892BA1F3DACF04
:10101000FA01AA27283051F1203181F1E8946F9329
:101020006E7F6E5F7F4F8F4F9F4FAF4FB1E03ED0CF
:10103000B4E03CD0670F781F891F9A1FA11D680F6D
:10104000791F8A1F911DA11D6A0F711D811D911DA0
:10105000A11D20D009F468943F912AE0269F112415
:101060003019305D3193DEF6CF010895462F477079
:10107000405D4193B3E00FD0C9F7F6CF462F4F70D4
:10108000405D4A3318F0495D31FD4052419302D032
:10109000A9F7EACFB4E0A6959795879577956795D8
:1010A000BA95C9F700976105710508959B01AC01D8
:1010B0000A2E06945795479537952795BA95C9F7FF
:1010C000620F731F841F951FA01D0895F999FECF0D
:1010D00092BD81BDF89A992780B508952F923F92CD
:1010E0004F925F926F927F928F929F92AF92BF9238
:1010F000CF92DF92EF92FF920F931F93CF93DF93E4
:10110000CDB7DEB7CA1BDB0B0FB6F894DEBF0FBE40
:10111000CDBF09942A88398848885F846E847D848D
:101120008C849B84AA84B984C884DF80EE80FD808F
:101130000C811B81AA81B981CE0FD11D0FB6F89405
:0E114000DEBF0FBECDBFED010895F894FFCFC6
:10114E0050656E67004D656C6F6469650025732090
:10115E0025730025642E256400426F756E6473003E
:10116E004F7574206F66002D256C642E256C6400FF
:04117E0025326400B2
:00000001FF
