:100000000C943A000C9457000C9457000C94570031
:100010000C94D3010C9457010C9457000C94570086
:100020000C9457000C9457000C9457000C94D60075
:100030000C9457000C9457000C94C4000C94570077
:100040000C9457000C9457000C9441030C945700E7
:100050000C9457000C9457000C9457000C945700C4
:100060000C9457000C9457006364696E6F7073753D
:1000700078585B0011241FBECFEFD8E0DEBFCDBFA4
:1000800011E0A0E0B1E0ECEDFAE102C005900D92C4
:10009000A034B107D9F721E0A0E4B1E001C01D927E
:1000A000AC35B207E1F70E948F030C946C0D0C94F1
:1000B0000000E1E8F0E08081887F80830895E1E836
:1000C000F0E080818A7F80838081826080830895D0
:1000D000E1E8F0E080818B7F808380818360808392
:1000E0000895E1E8F0E08081877F8083EFE6F0E02B
:1000F0008081826080838FE395EB90938900809369
:10010000880010928500109284000895E1E8F0E0E4
:10011000808188608083EFE6F0E080818260808368
:1001200087EA91E690938900809388001092850079
:100130001092840010924B0183E28093B3000895E3
:10014000239AE0EBF0E0808183688083E1EBF0E0CC
:1001500080818760808383E28093B3000895259A2D
:1001600084B5826084BDEEE6F0E0808182608083A9
:10017000089585B58C7F85BD85B5846085BD08955E
:1001800085B5887F85BD08951F920F920FB60F9297
:1001900011248F939F9385B190E2892785B99F9110
:1001A0008F910F900FBE0F901F9018951F920F9276
:1001B0000FB60F9211242F933F934F935F936F933A
:1001C0007F938F939F93AF93BF93EF93FF93809110
:1001D0004501813021F080914501843021F40E9455
:1001E00059001092450180914501833009F58091B5
:1001F0004B018F5F80934B0120914B0139EE32030D
:10020000C001112464E670E00E94EA066D5D60930F
:10021000B30080914B01843658F00E94590088B198
:10022000866088B9439883E28093B30010924501B9
:10023000809146018823B9F080914E0181508093CE
:100240004E0180914E0181110EC0809146018F5F59
:1002500080934601809146018230B1F486E287BDE9
:1002600083E080934E01FF91EF91BF91AF919F91F9
:100270008F917F916F915F914F913F912F910F904F
:100280000FBE0F901F90189580914601833041F466
:1002900080914201811102C08DE4E1CF83E1DFCF83
:1002A0000E94C000109246010E945900DCCF1F92AC
:1002B0000F920FB60F9211242F933F934F935F939A
:1002C0006F937F938F939F93AF93BF93EF93FF931E
:1002D0004A9B15C00E9471000E945F00FF91EF9140
:1002E000BF91AF919F918F917F916F915F914F914E
:1002F0003F912F910F900FBE0F901F9018950E9465
:100300005900809184009091850090934D018093D5
:100310004C0140914C0150914D0125E0249FC001BA
:10032000259F900D11246AE370E00E94D606709319
:100330004D0160934C0180914501813061F48091C1
:100340004C0190914D01909341018093400182E0D6
:1003500080934501C3CF80914501843009F0BECF21
:1003600080914C0190914D019093490180934801F7
:1003700020934501B3CF96B1892F807294FD09C0B7
:1003800081110DC010924401809144018093470176
:100390000895811106C081E080934401F5CF82E089
:1003A000FBCF83E0F9CF1F920F920FB60F9211246B
:1003B0002F938F939F9386B1982F90718072209185
:1003C000440121110BC0992309F446C021E0209378
:1003D0004701209143012F5F209343012091440165
:1003E000213049F4911142C01092470120914301FC
:1003F00021502093430120914401223051F499234C
:10040000F1F123E0209347012091430121502093F3
:10041000430120914401233051F4911138C082E00E
:1004200080934701809143018F5F809343019091B6
:10043000470180914401981739F081E080934A0187
:1004400080914701809344019F918F912F910F904C
:100450000FBE0F901F901895882309F4BFCF22E09C
:1004600020934701209143012150B6CF882319F2F0
:1004700023E020934701209143012F5FBACF8111E0
:10048000C8CF10924701209143012F5FC0CF811147
:10049000CECF81E080934701809143018150C5CF49
:1004A0009BB19F709BB99BB1807F892B8BB9299A97
:1004B000299A29980895CF93C82F28980E9450020E
:1004C0008C2F8295807F0E9450028FE39FE10197DD
:1004D000F1F700C00000CF910895811104C080E8B9
:1004E000860F0C945B0280ECFBCF84B1836084B9EF
:1004F0008AB1806F8AB98FE59AEE0197F1F700C053
:10050000000080E30E9450028FE19EE40197F1F722
:1005100000C0000080E30E9450028FED91E001973F
:10052000F1F700C0000080E30E94500280E20E94C8
:1005300050028FE39FE10197F1F700C0000088E2CD
:100540000E945B028FE00C945B02CF93C82F289A25
:100550000E9450028C2F8295807F0E9450028FE370
:100560009FE10197F1F700C00000CF910895CF936C
:10057000DF93EC018991811103C0DF91CF91089540
:100580000E94A502F7CFEAE7F0E0808180688083CF
:10059000ACE7B0E08C9180668C938081876080832B
:1005A000089590917C00907F8F70982B90937C00A1
:1005B00080917A00806480937A0080917A0086FD31
:1005C000FCCF8091790008958093420191E090934F
:1005D000460193E090934E01882341F08DE487BD5E
:1005E0000E94B9000E9486000C94680083E1F7CF56
:1005F000249A2C981092C50087E68093C400E1EC01
:10060000F0E0808188698083E2ECF0E080818660A0
:10061000808308950F931F93CF93DF93CDB7DEB7F9
:1006200028970FB6F894DEBF0FBECDBF9F938F9370
:100630008AE391E09F938F931F9288E08F938E01BE
:100640000F5F1F4F1F930F930E945907F8010FB6BA
:10065000F894DEBF0FBECDBF819181110BC02896EB
:100660000FB6F894DEBF0FBECDBFDF91CF911F91C3
:100670000F9108959091C00095FFFCCF8093C60024
:10068000EBCF1F920F920FB60F9211242F938F93DF
:100690009F93EF93FF938091C600803489F481E0AB
:1006A00080935A0110925B0110925301FF91EF91D8
:1006B0009F918F912F910F900FBE0F901F901895C3
:1006C000843299F490915A01913079F420915B0130
:1006D000222359F0E0915B01F0E0EC5AFE4F1082CA
:1006E0009093530110925A01E1CF90915A019923AE
:1006F000E9F290ED980F9A3010F08D3299F79091C1
:100700005B01953078F7E0915B01F0E0EC5AFE4F29
:10071000808380915B018F5F80935B01C7CFCF9314
:10072000DF93CDB7DEB7AA970FB6F894DEBF0FBE42
:10073000CDBF0E9475020E94C3020E94A0000E94C9
:10074000AF000E94F802539A87B18E6087B98091FA
:10075000680084608093680080916D00846080935D
:100760006D008091680082608093680080916C00C9
:10077000806380936C0088B1806388B90E94BB015C
:10078000789481E00E945B0280E091E09F938F93D8
:1007900085E091E09F938F938DE091E09F938F93FD
:1007A0001F928DE08F938E010E5E1F4F1F930F934C
:1007B0000E94590762E080E00E946D02C8010E9419
:1007C000B7022FEF33ED40E3215030404040E1F7D6
:1007D00000C0000081E00E945B0288B1866088B999
:1007E00043981092450190E080E00E941B0D809399
:1007F0004301809143010FB6F894DEBF0FBECDBF19
:10080000843620F480914301811103C08AE08093F3
:10081000430183E28093B300809143011F928F9341
:1008200083E191E09F938F931F9284E08F938E01D9
:100830000D5D1F4F1F930F930E94590767E081E0E2
:100840000E946D02C8010E94B7020FB6F894DEBF85
:100850000FBECDBF9AE0C92ED12C2FE2E22E21E0AF
:10086000F22E025211093AE0432E512C612C712CC8
:1008700043E1242E41E0342E4E015FE1850E911CB0
:100880008091450181110EC00E94D10287598B30A1
:1008900048F45B9A85E38A95F1F700005B9881E064
:1008A0008093450180914501823079F58091400126
:1008B000909141012091400130914101B6010E9487
:1008C000D6069F938F93C901B6010E94D6067F93E7
:1008D0006F93FF92EF921F9281E18F931F930F937B
:1008E0000E94590760E080E00E946D02C8010E94EA
:1008F000B7020E9486000E94680083E08093450151
:100900000FB6F894DEBF0FBECDBF80914501833096
:10091000A1F580914B0130914B012AE0622F0E949A
:10092000CA061F929F93832F0E94CA061F928F931D
:10093000FF92EF921F9281E18F931F930F930E947A
:1009400059076CE080E00E946D02C8010E94B70266
:1009500080E00E94D1020FB6F894DEBF0FBECDBF7B
:10096000853058F40E9459005B9A55E35A95F1F787
:1009700000005B9884E080934501809145018530BB
:10098000B9F580914001909141018139914040F445
:1009900080914801909149018139914008F4B1C09A
:1009A00088B1866088B9439847E151E05F934F93DF
:1009B0002EE131E03F932F938DE091E09F938F9351
:1009C0001F928DE08F931F930F930E94590762E04F
:1009D00080E00E946D02C8010E94B70281E00E947F
:1009E0005B02109245010FB6F894DEBF0FBECDBF7B
:1009F00080915301882309F44FC0109253019F92B4
:100A00008F9282E391E09F938F9344E551E05F934F
:100A10004F930E9489072F8D38A1C90137FF04C069
:100A200088279927821B930B0F900F900F900F90A0
:100A30000F900F90B6010E94EA065B0137FFA1C13B
:100A40009F938F93BF926F938EE291E09F938F93CA
:100A50001F9288E08F931F930F930E9459070FB640
:100A6000F894DEBF0FBECDBF6CE081E00E946D0246
:100A700085E391E00E94B7026CE081E00E946D0284
:100A8000C8010E94B702809143018A151B040CF033
:100A90007FC181E00E94E40280914A01882309F429
:100AA000EFCE10924A0180914301843618F083E61C
:100AB0008093430180914301811103C081E08093C1
:100AC00043016091430190E080E00E94230D8091FA
:100AD00043011F928F933F922F921F9284E08F9336
:100AE0001F930F930E94590767E081E00E946D02F7
:100AF000C8010E94B7020FB6F894DEBF0FBECDBF8B
:100B0000BFCE2091480130914901809140019091E0
:100B10004101E0914B0150E040E0281B390B4109B5
:100B20005109AAE0B0E00E941D072E2F30E050E0EE
:100B300040E00E94FE0620934F0130935001409305
:100B400051015093520160E081E00E946D0281E00A
:100B50000E945B0280914F0190915001A091510140
:100B6000B09152010E940A0380914001909141018D
:100B70002091400130914101B6010E94D6069F9319
:100B80008F93C901B6010E94D6067F936F93FF929F
:100B9000EF921F9281E1B82EBF921F930F930E9494
:100BA000590760E080E00E946D02C8010E94B70210
:100BB000809148019091490120914801309149016B
:100BC000B6010E94D6069F938F93C901B6010E9479
:100BD000D6067F936F93FF92EF921F92BF921F935F
:100BE0000F930E94590766E080E00E946D02C801E1
:100BF0000E94B70280914B0130914B012AE0622F95
:100C00000E94CA061F929F93832F0E94CA061F92BA
:100C10008F93FF92EF921F92BF921F930F930E94A8
:100C200059076CE080E00E946D02C8010E94B70283
:100C300080914F0190915001A0915101B0915201CA
:100C40000FB6F894DEBF0FBECDBFB7FF6DC0809169
:100C50004F0190915001A0915101B09152019C011E
:100C6000AD0166277727CB01621B730B840B950BB5
:100C7000A30192010E94FE069F938F937F936F932F
:100C80005F934F933F932F9345E251E05F934F93D0
:100C90001F92BF921F930F930E9459070FB6F894AB
:100CA000DEBF0FBECDBF60E081E00E946D02C801D3
:100CB0000E94B70288B18E6088B960914F0170912F
:100CC00050018091510190915201B090430197FFE2
:100CD00007C090958095709561957F4F8F4F9F4F7E
:100CE000A30192010E94FE068B2D90E0B0E0A0E0EF
:100CF00082179307A407B5070CF041C04198809173
:100D000043011F928F933F922F921F9284E08F9303
:100D10009F928F920E94590767E081E00E946D02C6
:100D2000C4010E94B7025DCE60914F0170915001E5
:100D3000809151019091520120914F0130915001C9
:100D400040915101509152012FA338A749A75AA7AA
:100D5000A30192010E94FE069F938F937F936F934E
:100D60006FA178A589A59AA5A30192010E94FE060C
:100D70005F934F933F932F9346E251E087CF429882
:100D8000BECF9F938F93BF926F93FF92EF9260CEEF
:100D900080E080CE991B79E004C0991F961708F077
:100DA000961B881F7A95C9F780950895AA1BBB1BCF
:100DB00051E107C0AA1FBB1FA617B70710F0A61B5B
:100DC000B70B881F991F5A95A9F780959095BC017C
:100DD000CD01089597FB072E16F4009407D077FDF8
:100DE00009D00E94D60607FC05D03EF49095819567
:100DF0009F4F0895709561957F4F0895052E97FB3D
:100E00001EF400940E94150757FD07D00E94280782
:100E100007FC03D04EF40C9415075095409530957F
:100E200021953F4F4F4F5F4F089590958095709556
:100E300061957F4F8F4F9F4F08950E944A07A59F4E
:100E4000900DB49F900DA49F800D911D11240895C5
:100E5000A1E21A2EAA1BBB1BFD010DC0AA1FBB1FBE
:100E6000EE1FFF1FA217B307E407F50720F0A21B30
:100E7000B30BE40BF50B661F771F881F991F1A949D
:100E800069F760957095809590959B01AC01BD01C7
:100E9000CF010895A29FB001B39FC001A39F700D21
:100EA000811D1124911DB29F700D811D1124911D72
:100EB0000895AEE0B0E0EFE5F7E00C94430D0D8946
:100EC0001E898F89988D26E02C831A83098397FFCA
:100ED00002C080E090E801979E838D83AE01455E5D
:100EE0005F4F698D7A8DCE0101960E94A2074D81D8
:100EF0005E8157FD0AC02F813885421753070CF4D5
:100F00009A01020F131FF80110822E96E4E00C9450
:100F10005F0DAEE0B0E0EFE8F7E00C94450D85E042
:100F20008C838B899C899A838983AE01495E5F4F4C
:100F30006D897E89CE0101960E94070B2E96E2E014
:100F40000C94610DABE0B0E0E8EAF7E00C94350DED
:100F50007C013B018A01FC0117821682838181FF9B
:100F6000C8C1CE0101965C01F7019381F30193FDA5
:100F7000859193FF81913F01882309F453C1853204
:100F800039F493FD859193FF81913F01853229F4D6
:100F9000B70190E00E94720CE7CF912C212C312CEC
:100FA000FFE1F31538F08B3211F190F4803209F142
:100FB000833229F137FC3CC020ED280F2A3050F550
:100FC00036FE20C08AE0989E200D1124922E06C085
:100FD0008D3291F0803371F7689430F8F30193FD0E
:100FE000859193FF81913F018111DACF21C06894EF
:100FF00031F8689432F8F2CF689433F8EFCF689400
:1010000034F8ECCFEAE02E9E200D1124222E6894B5
:1010100035F8E4CF8E3229F436FC04C1689436F8F2
:10102000DDCF8C3619F4689437F8D8CF8836B1F212
:10103000982F9F7D95549330E0F08336A1F183374C
:10104000C1F1833509F063C02801F2E04F0E511C55
:10105000F801C080D180692D70E036FC02C06FEFCE
:101060007FEFC6010E94200C4C01689437F8820182
:101070000AC00C5F1F4FFFE3F98388248394912CEF
:101080006501E89437F833FE2DC0522C8114910489
:1010900071F5552009F468CFB70180E290E00E9415
:1010A000720C5A94F6CFF801808189830E5F1F4F2E
:1010B000E4CF2801F2E04F0E511CF801C080D1802E
:1010C000692D70E036FC02C06FEF7FEFC6010E9411
:1010D0002B0C4C018201D5CFB70180E290E00E9439
:1010E000720C2A942814190409F0B0F7CECFF60137
:1010F00037FC859137FE81916F01B70190E00E9426
:10110000720C51105A94F1E08F1A9108BFCF8436B7
:1011100019F0893609F077C0F80137FE6BC060819D
:101120007181828193810C5F1F4FF32DFF763F2EDB
:1011300097FF09C090958095709561957F4F8F4F6F
:101140009F4F689437F82AE030E0A5010E94BA0C5E
:10115000C82ECA188C2C432C36FE0CC0E89440F8DC
:10116000C91440F434FE05C032FC03C0F32DFE7EEA
:101170004F2E892C44FE95C0FE01EC0DF11D80819F
:10118000803309F087C0242D297E422E842D88705B
:10119000582E43FC95C040FE8FC09C2C821418F43E
:1011A0002C0C922C981844FE91C0B70180E390E07B
:1011B0000E94720C42FE09C088E790E041FE02C026
:1011C00088E590E0B7010E94720CC91408F48AC047
:1011D000CA94D12C9FEFC91AD90ACA0CDB1CF6019C
:1011E00082916F01B70190E00E94720CAC14BD04B3
:1011F000B1F74FCF60817181072E000C880B990BDE
:101200000E5F1F4F92CFD32CE894D4F82AE030E041
:10121000853739F1232D297FD22E8F3601F148F4FD
:101220008835A9F0F701868197812B96E2E10C942D
:10123000510D803749F08837A9F7D4FE02C0689471
:10124000D2F820E130E00DC06894D4F8F6CF34FE37
:1012500003C0822F8660D82E20E132E002C028E051
:1012600030E0F801D7FE0FC06081718182819381E7
:101270000C5F1F4FA5010E94BA0CC82ECA183D2C46
:10128000E89437F867CF6081718190E080E00E5F6D
:101290001F4FF0CF42FC02C0839478CF8394839495
:1012A00075CF842D867809F471CFF6CFB70180E22F
:1012B00090E00E94720C83948214C0F3512C73CF7F
:1012C000522C5818821408F46ECFF8CF842D8678EB
:1012D00009F47BCF8BE241FE80E247FC8DE2B7014F
:1012E00090E071CFB70180E390E00E94720C9A9475
:1012F0006CCF8FEF9FEF99CF20FD09C0FC0123FD3C
:1013000005C022FF02C07383628351834083089526
:1013100044FD17C046FD1DC0DB01FC01AA0FBB1F29
:10132000EE1FFF1F1094D1F76A0F7B1F8E1F9F1FA8
:10133000660F771F881F991F620F711D811D911DF8
:10134000089533E0660F771F881F991F3150D1F73A
:10135000F3CF34E0F7CF0F931F93CF93DF938C013C
:10136000C8010E94360CEC0197FD08C00E940C0CCD
:10137000892BB1F7B801CE010E94A20CCE01DF91FA
:10138000CF911F910F9108958F929F92AF92BF922C
:10139000EF92FF920F931F93CF93DF938C01D62F81
:1013A0007A01B22E0E94360C9C0133272B32310574
:1013B00029F02D323105A9F46894B7F8D15061F4C1
:1013C00080E0DF91CF911F910F91FF90EF90BF9040
:1013D000AF909F908F900895C8010E94360C97FDA2
:1013E000EFCFCB2DCD7F2B2D2073F9F48033E9F493
:1013F000AA24AA94AD0E89F0C8010E94360C97FD6C
:101400000CC0282F2F7D283561F4C264D25029F0FA
:10141000C8010E94360C97FF08C0812C912C540102
:101420001BC0B6FE2BC0C260DA2D812C912C54015A
:1014300020ED280F283028F1C4FD09C02A3008F11A
:10144000C6FF05C02F7D3FEE320F3630C8F0B80121
:101450000E94A20CC1FFB4CFC7FF08C0B094A094F3
:1014600090948094811C911CA11CB11C2C2FB5015F
:10147000A401C7010E947C0981E0A3CFC261D4CF3F
:1014800027504C2FC501B4010E9488094B015C0113
:10149000C260D15009F3C8010E94360C97FFC8CF33
:1014A000D9CFA0E2B0E0E7E5FAE00C943A0D5C0198
:1014B000962E7A01CE0101966C0180E2F60111921E
:1014C0008A95E9F7F501B381890130E020E0712CBC
:1014D000812CA0E041E050E0F801B3FD8591B3FF1D
:1014E0008191982F8F01811107C010E000E0C801A1
:1014F000A096EDE00C94560D8E3519F421153105AA
:1015000041F1A21713064CF48D3549F18D3229F4BF
:10151000811006C0882483941DC0882009F464C00B
:10152000E92FE695E695E695EC0DFD2DF11D892F49
:101530008770BA0101C0660F8A95EAF78081682B2F
:101540006083791651F0971510F49F5FE9CF9150A1
:10155000E7CFA1E02F5F3F4FBFCF812CFBCF88208B
:1015600019F08E8180628E83AA2359F0F6019E01C4
:101570002F5D3F4F8081809580833196E217F3077E
:10158000C9F788248394C5010E94360C97FD16C0C4
:10159000E82FE695E695E695EC0DFD2DF11D2081F1
:1015A00030E0AC014770552702C0359527954A9524
:1015B000E2F720FD06C0B5010E94A20C882069F068
:1015C00094CFE114F10429F0F7018083C70101965B
:1015D0007C019A94812C9110D6CFE114F10409F486
:1015E00086CFF701108283CFE82FE695E695E69542
:1015F000EC0DFD2DF11D982F9770BA0101C0660FFB
:101600009A95EAF79081692B6083782EA3CFB0E09A
:10161000A0E0EDE0FBE00C94380D6C01EB015A0109
:10162000FC0117821682512CF601E380FE01E3FCD7
:101630008591E3FE8191182FEF018823E9F090E076
:101640000E940C0C892B21F0C6010E94AB09ECCF43
:10165000153241F4FE01E3FC1591E3FE1191EF0117
:10166000153269F4C6010E94360C97FD8EC018171A
:10167000D9F2B6010E94A20C852D90E08AC000E04C
:101680001A3231F4E3FC1591E3FE1191EF0101E010
:10169000F12C20ED210F2A3048F101FF37C0FF2047
:1016A00059F31836B1F11C3609F43DC0112321F36A
:1016B000612F70E088E690E00E94150C892BE1F222
:1016C000912C812C00FD06C0F50180809180C50120
:1016D00002965C011E3679F5F6014681578170E06D
:1016E00060E0202FC4010E947C099ECF02606F2D14
:1016F00070E090E080E040E20E948809F62EFE0152
:10170000E3FC1591E3FE1191EF01C3CFFF24FA949E
:10171000C8CFFE01E3FC1591E3FE1191EF011836ED
:1017200009F0C4CF08600460FE01E3FC1591E3FEFC
:101730001191EF01BBCF1336C1F401FD02C0FF24AC
:10174000F394C6010E94360C97FD1FC081149104CA
:1017500029F0F4018083C40101964C01FA94F11040
:10176000F0CF00FD61CF53945FCF1B35B9F49E01DC
:10177000A4016F2DC6010E94510AEC01892B89F743
:10178000F6018381807309F477CF8FEF9FEF5110BB
:1017900073CFCDB7DEB7EFE00C94540DC6010E94B5
:1017A000AB0997FDF2CF1F36A9F130F4143641F0A2
:1017B000193639F0006405C01337B9F01537D1F781
:1017C0000062202FA4016F2DC6010E94C40981115F
:1017D000C8CFD6CF8114910429F0F4016082C401EE
:1017E00001964C01FA94FF2071F0C6010E94360C5C
:1017F0003C0197FD08C00E940C0C892B59F3B601DF
:10180000C3010E94A20C8114910409F4AACFF4012F
:101810001082A7CF0061D5CF91110C94180D8032A2
:1018200019F089508550C8F70895FC0105900616F7
:1018300021F00020D9F7C00108953197CF01089514
:10184000FC010590615070400110D8F7809590958B
:101850008E0F9F1F0895FC01615070400190011090
:10186000D8F7809590958E0F9F1F0895CF93DF93A3
:10187000EC012B8120FF1AC026FF0CC02F7B2B838D
:101880008E819F8101969F838E838A8190E0DF9174
:10189000CF91089522FF18C0E881F9818081082E38
:1018A000000C990B009729F420622B838FEF9FEF98
:1018B000EECF3196F983E8832E813F812F5F3F4F32
:1018C0003F832E839927E3CFEA85FB85099597FF10
:1018D000F3CF2B81019621F080E2822B8B83E6CF20
:1018E00080E1FBCF0F931F93CF93DF93182F092F26
:1018F000EB018B8181FD09C01FEF0FEF812F902F2E
:10190000DF91CF911F910F91089582FF14C02E8116
:101910003F818C819D81281739073CF4E881F9814A
:10192000CF0101969983888310838E819F810196D0
:101930009F838E83E3CFE885F985812F0995892BD5
:10194000A1F3DACFFB01238120FF11C026FD0FC0D8
:101950008F3F980771F082832F7D20642383268137
:1019600037812150310937832683992708958FEFD6
:101970009FEF0895FA01AA27283051F1203181F113
:10198000E8946F936E7F6E5F7F4F8F4F9F4FAF4F87
:10199000B1E03ED0B4E03CD0670F781F891F9A1F9A
:1019A000A11D680F791F8A1F911DA11D6A0F711D4E
:1019B000811D911DA11D20D009F468943F912AE05A
:1019C000269F11243019305D3193DEF6CF01089542
:1019D000462F4770405D4193B3E00FD0C9F7F6CF73
:1019E000462F4F70405D4A3318F0495D31FD40523B
:1019F000419302D0A9F7EACFB4E0A69597958795D1
:101A000077956795BA95C9F70097610571050895AF
:101A10009B01AC010A2E069457954795379527955B
:101A2000BA95C9F7620F731F841F951FA01D0895F3
:101A3000992788270895F999FECF92BD81BDF89A1C
:101A4000992780B50895262FF999FECF92BD81BDC3
:101A5000F89A019700B4021639F01FBA20BD0FB6EC
:101A6000F894FA9AF99A0FBE08952F923F924F92E6
:101A70005F926F927F928F929F92AF92BF92CF921E
:101A8000DF92EF92FF920F931F93CF93DF93CDB727
:101A9000DEB7CA1BDB0B0FB6F894DEBF0FBECDBF9F
:101AA00009942A88398848885F846E847D848C8470
:101AB0009B84AA84B984C884DF80EE80FD800C8179
:101AC0001B81AA81B981CE0FD11D0FB6F894DEBF5C
:0C1AD0000FBECDBFED010895F894FFCFCC
:101ADC0050656E67004D656C6F64696500257320F9
:101AEC0025730025326400426F756E6473004F7568
:101AFC0074206F66002D256C642E256C64002D25DA
:101B0C00642E256400202020200040256424000041
:00000001FF
